:020000040800F2
:100000006807002049010008510E0008F1060008A9
:100010004D0E0008D90200082F1C00080000000047
:1000200000000000000000000000000011100008A7
:100030006104000800000000D90E00082511000826
:100040006301000863010008630100086301000800
:1000500063010008630100086301000863010008F0
:1000600063010008630100086301000863010008E0
:1000700063010008630100086301000863010008D0
:1000800063010008630100086301000863010008C0
:1000900063010008630100086301000863010008B0
:1000A00063010008630100086301000863010008A0
:1000B0006301000863010008630100086301000890
:1000C0006301000863010008630100086301000880
:1000D00063010008C9160008011800083919000852
:1000E0006301000863010008630100086301000860
:1000F0006301000863010008630100086301000850
:10010000630100086301000863010008630100083F
:10011000630100086301000863010008630100082F
:10012000630100086301000863010008630100081F
:10013000DFF810D000F07EF8004800478520000866
:10014000AFF3008068070020064880470648004754
:10015000FEE7FEE7FEE7FEE7FEE7FEE7FEE7FEE777
:10016000FEE7FEE7651100083101000870B50F4D8C
:1001700000B92868002412E00A4602E09E4203D03B
:10018000521C1378002BF9D1DAB2224305D02BB1DF
:1001900024B1002100F8011B04E00446401C06784D
:1001A000002EE9D12860204670BD00000401002027
:1001B0002DE9F05F0546002092469B46884606469C
:1001C000814640241BE0284641464746224600F02F
:1001D00020F853465A46C01A914110D3114618468A
:1001E000224600F039F82D1A67EB01084F462246E7
:1001F0000120002100F030F817EB00094E41201ECD
:10020000A4F10104DFDC484631462A464346BDE8F6
:10021000F09F202A04DB203A21FA02F000217047E7
:1002200021FA02F3D040C2F120029140084319465E
:1002300070470000064C074D06E0E06840F00103FF
:1002400094E8070098471034AC42F6D3FFF774FFE8
:10025000C0000608E0000608202A04DB203A00FA65
:1002600002F1002070479140C2F1200320FA03F30D
:10027000194390407047000008B50121082000F0A4
:100280004DFE4FF48070ADF8000010208DF8030093
:1002900003208DF802006946044800F091F94FF4FC
:1002A0008071024800F020FA08BD0000000C0140F7
:1002B00010B54FF48071024800F018FA10BD00002C
:1002C000000C014010B54FF48071024800F00CFAA8
:1002D00010BD0000000C014000BFFEE710B5002477
:1002E00000F024F804E0601CC4B2012001F092FE8A
:1002F0000D48006808B1642CF5DB642C01DB01209B
:1003000010BD002404E0601CC4B2012001F082FE94
:100310000548006808B9642CF5DB642C01DB01207A
:10032000EEE70020ECE700002C01244208B54FF472
:100330000060ADF8000048208DF8030069460248CF
:1003400000F03EF908BD00000020014008B54FF460
:100350000060ADF8000010208DF8030003208DF838
:1003600002006946014800F02BF908BD0020014059
:1003700010B5002404E0601CC4B2012001F04AFE64
:100380000D48006808B1642CF5DB002404E0601C13
:10039000C4B2012001F03EFE0748006808B9642C91
:1003A000F5DB282001F036FE0348006808B1012083
:1003B00010BD0020FCE700002C01244270B5002491
:1003C000002506E06006040EFFF7D2FF0443681C18
:1003D000C5B2082DF6DB204670BD7CB505460E463D
:1003E00000F028F8FFF77AFFF8B9002405E0FFF7DE
:1003F000E5FF0DF80400601CC4B2052CF7DB9DF886
:1004000000009DF8011008449DF8021008449DF872
:10041000031008449DF80410884208D19DF800009C
:1004200030709DF80200287001E001207CBD0020A2
:10043000FCE7000010B5FFF789FF002006490860BF
:10044000142001F0C1FD01200449C1F8AC011E20B7
:1004500001F0E0FD10BD0000AC0124420000244288
:100460007047000051B18200A2F1C042126842F010
:1004700001038200A2F1C042136009E08200A2F1F0
:10048000C0421268034B1A408300A3F1C0431A60B4
:1004900070470000FEFF0F00D0E901121143C2684F
:1004A0001143026911434269114382691143C269D0
:1004B0001143026A1143426A1143826A1143C26ABC
:1004C0001143026B114302689200A2F1C042116015
:1004D000816808290BD101688900A1F1C041096830
:1004E00041F0400201688900A1F1C0410A60416BFE
:1004F0000968426B526841EA0211426B926841EA14
:100500000221426B928941EA0241426B128A41EA1E
:100510000251426B127D41EA0261426B92691143C2
:100520000268521C9200A2F1C0421160C16AB1F58A
:10053000804F1BD1816B0968826B526841EA0211BE
:10054000826B926841EA0221826B128A41EA02516F
:10055000826B127D41EA0261826B926911430268EB
:100560009200A2F1C042C2F8041107E06FF070429D
:1005700001688900A1F1C041C1F804217047000061
:1005800010B54FF40051024800F0A5F810BD00006E
:10059000000C014008B50121082000F0BFFC4820F4
:1005A0008DF803004FF40050ADF8000003208DF8E3
:1005B00002006946014800F003F808BD000C014044
:1005C0002DE9F041024600250026002000230024EA
:1005D000002791F803C00CF00F0591F803C00CF050
:1005E000100CBCF1000F03D091F802C04CEA0505D5
:1005F00091F800C0BCF1000F31D0146800202BE04E
:100600004FF0010C0CFA00F3B1F800C00CEA03063D
:100610009E4220D183004FF00F0C0CFA03F7BC432D
:1006200005FA03FC4CEA040491F803C0BCF1280F5E
:1006300006D14FF0010C0CFA00FCC2F814C00AE01D
:1006400091F803C0BCF1480F05D14FF0010C0CFA32
:1006500000FCC2F810C0401C0828D1D31460B1F8C7
:1006600000C0BCF1FF0F34DD546800202EE000F123
:10067000080C4FF0010808FA0CF3B1F800C00CEABE
:1006800003069E4221D183004FF00F0C0CFA03F7B2
:10069000BC4305FA03FC4CEA040491F803C0BCF126
:1006A000280F05D100F1080C08FA0CF8C2F81480E4
:1006B00091F803C0BCF1480F07D100F1080C4FF0CE
:1006C000010808FA0CF8C2F81080401C0828CED3A4
:1006D0005460BDE8F0810246002093680B400BB1E6
:1006E000012000E0002070474161704701617047C0
:1006F00000BFFEE770B506460F484088401E83B233
:100700000D480088401E82B20021084600F04FF8D4
:1007100000240CE0002504E0304600F06BFB681C70
:1007200085B205484088A842F6DC601C84B20248C5
:100730000088A042EEDC70BD1E00002010B504460B
:100740000D4884715CB90021362000F043FB4FF462
:100750004870094948804FF4F07008800AE0682129
:10076000362000F037FB4FF4F070034948804FF417
:100770004870088010BD00001E00002070B50446BF
:100780000D4616462B4622462946204600F00FF815
:10079000304600F02FFB70BD10B50246012000E08E
:1007A00050430B1EA1F10104E1B2F9D110BD70B5A7
:1007B00004460D462A2000F007FB2646E11704EB0D
:1007C0001161C1F30F2000F00FFBE11704EB116181
:1007D0000912A4EB012188B200F006FB1646D117DE
:1007E00002EB1161C1F30F2000F0FEFA1646D1179B
:1007F00002EB11610912A2EB012188B200F0F4FAB8
:100800002B2000F0E1FA2E46E91705EB1161C1F348
:100810000F2000F0E9FAE91705EB11610912A5EBC9
:10082000012188B200F0E0FA1E46D91703EB1161EE
:10083000C1F30F2000F0D8FA1E46D91703EB11615F
:100840000912A3EB012188B200F0CEFA2C2000F0AF
:10085000BBFA70BD2DE9F84F80460E4617461C4680
:10086000B3462046E31704EB5373DB1021464FEAEF
:10087000E47C04EB5C7C4FEAEC0CA4EBCC0CBCF10C
:10088000000F02D04FF0010C01E04FF0000C634468
:10089000224604EBD27C4FEA6C0C03FB0CF3DBB278
:1008A0000093A7F12000C7B2002556E00C2C07D119
:1008B00007EB47002B4901EB800010F8059013E08F
:1008C000102C05D1284800EB071010F805900BE01C
:1008D000182C07D107EBC700244901EB800010F862
:1008E000059001E0BDE8F88F4FF0000A2FE009F015
:1008F000800030B11E48028831464046FFF73EFF77
:1009000007E00A9828B91B48028831464046FFF79D
:1009100035FF4FEA49604FEA1069701C86B21648ED
:100920004088B04200DCDDE7A6EB0B00A0420AD114
:100930005E4608F101001FFA80F80F480088404524
:1009400000DCCFE706E00AF1010000F0FF0ABAF18F
:10095000080FCCDB00BF681CC5B200988542A5DB40
:1009600000BFBFE72291050896950508869B0508FC
:100970001A0000201C0000201E0000202DE9F84F66
:1009800004460F461546A346009757E000264EE062
:10099000BB2070432C49085C2978884245D1BB2094
:1009A0007043294908444078697888423DD14FF026
:1009B000000837E0BB20704323490844801C10F82E
:1009C00008A04FF0000926E00AF08000802806D138
:1009D0001E48028839462046FFF7D0FE05E01C4835
:1009E000028839462046FFF7C9FE4FF6FF7000EA3D
:1009F0004A0A601C84B2A4EB0B00282807D15C468D
:100A0000781C87B20098381A252800D1009F09F178
:100A1000010000F0FF09B9F1080FD5DB08F1010072
:100A200000F0FF08B8F1B90FC4DB701CC6B2C82EC5
:100A3000AEDBAD1C04F1280084B2A3462878002860
:100A4000A4D1BDE8F88F000062D805081A00002084
:100A50001C0000202DE9F84F04460F461546A3461A
:100A600000975AE0002651E006EB06202D4911F8C8
:100A700010002978884247D106EB0620294901EB6E
:100A800040004078697888423ED14FF0000838E055
:100A900006EB0620234901EB4000801C10F808A05B
:100AA0004FF0000926E00AF08000802806D11E4899
:100AB000028839462046FFF761FE05E01B480288A0
:100AC00039462046FFF75AFE4FF6FF7000EA4A0A01
:100AD000601C84B2A4EB0B00402807D15C46781C54
:100AE00087B20098381A402800D1009F09F1010010
:100AF0001FFA80F9B9F1080FD5DB08F101001FFAE0
:100B000080F8B8F5007FC3DB701C86B2C82EABDB63
:100B1000AD1C04F1400084B2A34628780028A1D17E
:100B2000BDE8F88FAAEC05081A0000201C00002080
:100B30002DE9F84F04460F461546A346009760E09E
:100B4000002657E006EBC600C0EB86102F4911F8CF
:100B50001000297888424BD106EBC600C0EB861006
:100B60002A4901EB400040786978884240D14FF033
:100B700000083AE006EBC600C0EB8610234901EB03
:100B80004000801C10F808A04FF0000926E00AF091
:100B90008000802806D11E48028839462046FFF78B
:100BA000EDFD05E01B48028839462046FFF7E6FDCB
:100BB0004FF6FF7000EA4A0A601C84B2A4EB0B00F7
:100BC000202807D15C46781C87B20098381A1B2869
:100BD00000D1009F09F1010000F0FF09B9F1080FF1
:100BE000D5DB08F1010000F0FF08B8F16C0FC1DBA4
:100BF000701CC6B2C82EA5DBAD1C04F1200084B267
:100C0000A346287800289BD1BDE8F88F12E4050898
:100C10001A0000201C0000202DE9F84F06460F4660
:100C200014461D464FF0000AD34600200090781964
:100C3000401E83B23019401E82B239463046FFF75B
:100C4000B6FD04FB05F040000090D04625E04FF0D3
:100C500000091CE00BF101010A9810F801A04FF601
:100C6000FF7000EA0A2A0A9810F80B0040EA0A0A04
:100C700007EB080291B206EB090290B25246FFF769
:100C80007DFD0BF1020B09F101001FFA80F9A1456E
:100C9000E0DB08F101001FFA80F8A845D7DBBDE8CA
:100CA000F88F2DE9F84704460D4690469946DDE950
:100CB000096704F0FF0A08EB04001FFA80F809EB4B
:100CC00005001FFA80F916E0444502DB5446A819D6
:100CD00085B24D4500DB14E0002000903A783346A1
:100CE00029462046FFF7B6FD304606EBD07104EBEF
:100CF00061018CB27F1C38787E2802DC387820288D
:100D0000E2DA00BFBDE8F8872DE9FF4F82B0064662
:100D100092461F46DDE90F480020019000254DE076
:100D2000781B401EC1B20A20FFF736FDBAFBF0F077
:100D30000A21B0FBF1F201FB1209019850BB781EA9
:100D4000A84227DDB9F1000F22D108F0800078B168
:100D500008F00100A34604EBDB71491001FB0561BB
:100D6000009088B2234630220399FFF773FD0EE00E
:100D700008F00100A34604EBDB71491001FB05619B
:100D8000009088B2234620220399FFF763FD13E009
:100D90000120019008F00100A34604EBDB7149102B
:100DA00001FB0561009088B209F13001CAB2234607
:100DB0000399FFF74FFD00BF681CC5B2BD42AFDB12
:100DC00006B0BDE8F08F00000149088070470000C0
:100DD000FE07006C00B503460A461846FFF7F4FF0D
:100DE000104600F001F800BD01490880704700007E
:100DF0000008006C01490880704700000008006C82
:100E000008B50121482000F089F82020ADF8000045
:100E100010208DF8030003208DF802006946094870
:100E2000FFF7CEFB20210748FFF760FC2020ADF83C
:100E3000000069460448FFF7C3FB20210248FFF782
:100E400055FC08BD000C01400018014000BFFEE742
:100E50007047000070B5002100230F22C47804B34E
:100E6000154C246804F4E064C4F5E064210AC1F17F
:100E70000403CA40447804FA03F1847814402143FF
:100E800009010E4C0678A155047804F01F050124D1
:100E9000AC4005786D11AD0005F1E025C5F80041C5
:100EA00009E0047804F01F050124AC40044D0678E5
:100EB000761145F8264070BD0CED00E000E400E03E
:100EC00080E100E002490143024A116070470000DE
:100ED0000000FA050CED00E07047000029B1064A59
:100EE00052690243044B5A6104E0034A5269824347
:100EF000014B5A61704700000010024029B1064AB8
:100F0000D2690243044BDA6104E0034AD2698243A6
:100F1000014BDA61704700000010024029B1064A17
:100F200092690243044B9A6104E0034A9269824346
:100F3000014B9A61704700000010024030B500215B
:100F40000022002400232D4D6D6805F00C0121B115
:100F5000042905D0082923D105E0294D056022E0A8
:100F6000274D05601FE0254D6D6805F47012234D77
:100F70006D6805F48034022505EB92421CB9214DC1
:100F8000554305600BE01D4D6D6805F400351DB13E
:100F90001C4D5543056002E0194D5543056002E0C4
:100FA000174D056000BF00BF144D6D6805F0F001DE
:100FB0000909154D6B5C0568DD4045600F4D6D6896
:100FC00005F4E061090A104D6B5C4568DD40856001
:100FD0000A4D6D6805F46051C90A0B4D6B5C45689C
:100FE000DD40C560054D6D6805F44041890B074D36
:100FF0006B5CC568B5FBF3F5056130BD00100240C0
:1010000000127A0000093D000600002016000020B2
:10101000704710B500F002F810BD00000CB50020BC
:10102000019000903348006840F4803031490860F6
:1010300000BF3048006800F4003000900198401C68
:101040000190009818B90198B0F5A06FF1D1294826
:10105000006800F4003010B10120009001E0002091
:1010600000900098012843D12348006840F0100008
:10107000214908600846006820F00300086008461F
:10108000006840F0020008601A484068194948604A
:101090000846406848600846406840F48060486000
:1010A0000846406820F47C1048600846406840F4D8
:1010B000E81048600846006840F08070086000BF93
:1010C0000C48006800F000700028F9D0094840681A
:1010D00020F00300074948600846406840F00200DD
:1010E000486000BF0348406800F00C000828F9D1B0
:1010F0000CBD00000010024000200240042808D16E
:101100004FF0E021096941F004014FF0E022116144
:1011100007E04FF0E021096921F004014FF0E022DF
:10112000116170477047000010B504466FF004006D
:10113000FFF7E4FFE11704EB5171C1F3C701074A60
:1011400011701046007800EB4001C1EBC0104FF663
:10115000FF7101EAC0000249088010BD260000208E
:101160002800002010B51348006840F00100114924
:10117000086008464068104908400E494860084623
:1011800000680E4908400B4908600846006820F4D2
:10119000802008600846406820F4FE0048604FF454
:1011A0001F008860FFF735FF4FF0006004490860BA
:1011B00010BD0000001002400000FFF8FFFFF6FE27
:1011C00008ED00E000B59DB001210802FFF786FEA2
:1011D00001200790002008900F20099000200A901D
:1011E0000B900C900D90152000900190052002901E
:1011F0000020039004900590069006200E90002099
:101200000F901090102011900020129014901390C5
:10121000159016904FF480501790002018904FF4BE
:101220008040199000201A9007A81B90CDF870D02C
:101230000EA8FFF731F901210620FFF713F91DB0C1
:1012400000BD000008B501214FF4B470FFF766FE41
:101250004CF23370ADF8000018208DF80300032025
:101260008DF8020069461848FFF7AAF94FF680701A
:10127000ADF8000018208DF8030003208DF802005F
:1012800069461248FFF79CF941F20100ADF80000F1
:1012900018208DF8030003208DF8020069460C48E1
:1012A000FFF78EF90120ADF8000010208DF8030043
:1012B00003208DF8020069460648FFF781F90120F6
:1012C0000549086008BD00000014014000180140F5
:1012D00000200140000C01408081214210B5FFF741
:1012E000B1FFFFF76FFF322000F06EFED320FFF753
:1012F0006BFDEF480088EF498880ED4800888880C2
:10130000EB4800888880084680884FF6FF7101EA24
:101310000020E849888008468088E5490988084314
:10132000E449888008468188E3A000F083FCFF2020
:10133000FFF74AFDFF20FFF757FD9820FFF754FD08
:101340000620FFF751FDBA20FFF73EFD6020FFF7B2
:101350004BFDBC20FFF738FD0320FFF745FD0E20B5
:10136000FFF742FD0320FFF73FFD6320FFF73CFD41
:101370000120FFF739FD0120FFF736FD1B20FFF7A5
:1013800033FD1220FFF730FD6F20FFF72DFD002009
:10139000FFF72AFD0020FFF727FD0020FFF724FDBF
:1013A0000120FFF721FD0120FFF71EFD0320FFF7BD
:1013B0001BFD0220FFF718FDFF20FFF715FDF220AF
:1013C000FFF712FD0120FFF70FFD0020FFF70CFDD6
:1013D000C020FFF709FDBD20FFF7F6FC0220FFF754
:1013E00003FD1320FFF700FD4520FFF7FDFC6720FC
:1013F000FFF7FAFC4520FFF7F7FC6720FFF7F4FC46
:101400000120FFF7F1FC2320FFF7EEFCBE20FFF7E1
:10141000DBFC0120FFF7E8FC2220FFF7E5FC22209F
:10142000FFF7E2FCDC20FFF7DFFCBA20FFF7DCFC73
:101430006720FFF7D9FC2220FFF7D6FC2220FFF718
:10144000D3FC2220FFF7D0FCC720FFF7BDFC6620AD
:10145000FFF7CAFCED20FFF7B7FC7F20FFF7C4FCC5
:101460000F20FFF7C1FC0020FFF7BEFCC020FFF7F4
:10147000ABFC0320FFF7B8FC0B20FFF7B5FC002006
:10148000FFF7B2FCF520FFF79FFC2020FFF7ACFC34
:101490004320FFF7A9FC0020FFF7A6FCEE20FFF792
:1014A00093FC0A20FFF7A0FC1B20FFF79DFC5F20A8
:1014B000FFF79AFC4020FFF797FC2820FFF794FCE9
:1014C0003820FFF791FC0220FFF78EFC2B20FFF75E
:1014D0008BFC5020FFF788FC0020FFF785FC802064
:1014E000FFF782FCFC20FFF76FFC0820FFF77CFC75
:1014F000DF20FFF769FC0020FFF776FC0020FFF7F4
:1015000073FC0020FFF770FC0020FFF76DFC00204B
:10151000FFF76AFC2020FFF767FCF320FFF754FC7D
:101520007420FFF761FCB420FFF74EFC0220FFF7A8
:101530005BFC0220FFF758FC0220FFF755FCF72068
:10154000FFF742FC8220FFF74FFCB120FFF73CFC85
:101550000020FFF749FC1320FFF746FC1320FFF79C
:1015600043FCF220FFF730FC4120FFF73DFC042054
:10157000FFF73AFC4120FFF737FC2820FFF734FC47
:10158000C120FFF721FC1720FFF72EFC7820FFF782
:101590002BFC7B20FFF728FC2020FFF725FCE02018
:1015A000FFF712FC0020FFF71FFC0220FFF71CFCD6
:1015B0000C20FFF719FC0F20FFF716FC1120FFF796
:1015C00013FC1C20FFF710FCC820FFF70DFC0720C0
:1015D000FFF70AFC0320FFF707FC0820FFF704FCD5
:1015E0000320FFF701FC0D20FFF7FEFB0C20FFF7A7
:1015F000FBFB3120FFF7F8FB2C20FFF7F5FB002069
:10160000FFF7F2FBE120FFF7DFFB0020FFF7ECFB29
:101610000220FFF7E9FB0820FFF7E6FB0E20FFF7AB
:10162000E3FB1220FFF7E0FB1720FFF7DDFB7C2038
:10163000FFF7DAFB0A20FFF7D7FB0320FFF7D4FB05
:101640000920FFF7D1FB0620FFF7CEFB0C20FFF7A8
:10165000CBFB0C20FFF7C8FB2E20FFF7C5FB2A2091
:10166000FFF7C2FB0020FFF7BFFB3520FFF7ACFB05
:101670000020FFF7B9FB3620FFF7A6FBC020FFF7DD
:10168000B3FB3A20FFF7A0FB5520FFF7ADFB11207D
:10169000FFF79AFB782000F097FC2920FFF794FBD6
:1016A0000020FFF74BF84FF6FF70FFF723F810BD4F
:1016B0000008006C1E000020204C43442049443A9E
:1016C00025780D0A0000000010B540F225511D4894
:1016D00000F0E9F910B31B4800F0A0FAC4B21A48B0
:1016E000008800F40040C8B91748008800F4804022
:1016F00060B10A2C03D000201349088020E0124872
:10170000008840F400401049088019E00D2C06D1F3
:101710000D48008840F480400B49088010E00A48DA
:101720000088C0F30D0009490C5407480088401C8C
:101730000549088008460088C72801DD0020088088
:1017400010BD000000380140FA0000200C0100200C
:1017500010B586B0044601210420FFF7DFFB01210C
:101760008803FFF7DBFB4FF40070ADF81400032093
:101770008DF8160018208DF8170005A91E48FEF7F1
:101780001FFF4FF48060ADF8140004208DF817009F
:1017900005A91948FEF714FF01940020ADF80800D0
:1017A000ADF80A00ADF80C00ADF810000C20ADF853
:1017B0000E0001A9114800F0C5F901210F4800F001
:1017C00059F940210D4800F03DF9012240F2255120
:1017D0000A4800F092F925208DF8000003208DF8CA
:1017E00001008DF8020001208DF803006846FFF724
:1017F00031FB06B010BD0000000801400038014078
:1018000010B540F22551124800F04DF9F0B11048E2
:1018100000F004FA0F49104A127888540E480078F4
:1018200030B908460C490978405C2C2800D010BD1E
:1018300009480078401CC0B207490870062801DB3F
:10184000002008702021024800F005F900BFEEE7F3
:1018500000440040D40100200001002010B586B0F3
:10186000044601210420FFF759FB01214804FFF73A
:1018700045FB0420ADF8140003208DF81600182055
:101880008DF8170005A91E48FEF79AFE0820ADF84E
:10189000140004208DF8170005A91948FEF790FEE2
:1018A00001940020ADF80800ADF80A00ADF80C0076
:1018B000ADF810000C20ADF80E0001A9114800F0A1
:1018C00041F901210F4800F0D5F840210D4800F002
:1018D000B9F8012240F225510A4800F00EF92620FD
:1018E0008DF8000004208DF801008DF80200012021
:1018F0008DF803006846FFF7ADFA06B010BD000092
:10190000000801400044004010B500240DE00848E4
:10191000015D084800F087F900BF8021054800F00C
:10192000B5F80028F9D0601C84B2C62CEFDB10BDDE
:10193000300000200044004010B540F2255112480C
:1019400000F0B1F8F0B1104800F068F90F49104A02
:10195000127888540E48007830B908460C49097846
:10196000405C2C2800D010BD09480078401CC0B253
:1019700007490870062801DB002008702021024872
:1019800000F069F800BFEEE7004800409C0200202C
:101990000101002010B586B0044601210820FFF7A0
:1019A000BDFA01218804FFF7A9FA4FF48060ADF871
:1019B000140003208DF8160018208DF8170005A9D3
:1019C0001E48FEF7FDFD4FF40060ADF81400042042
:1019D0008DF8170005A91948FEF7F2FD01940020C3
:1019E000ADF80800ADF80A00ADF80C00ADF8100035
:1019F0000C20ADF80E0001A9114800F0A3F8012158
:101A00000F4800F037F840210D4800F01BF8012284
:101A100040F225510A4800F070F827208DF80000A8
:101A200002208DF801008DF8020001208DF80300DE
:101A30006846FFF70FFA06B010BD0000000C014029
:101A40000048004001F40072B2F5007F00D100BFF1
:101A5000CA430280704710B50022002340F66A1482
:101A6000A14200D100BF0A1201249440A3B2DC437A
:101A7000048010BD21B1828942F40052828104E0C9
:101A800082894DF6FF731A4082817047024600201A
:101A9000B1F5007F00D100BF13880B400BB10120CE
:101AA00000E00020704770B50246002400230025A6
:101AB000002040F66A16B14200D100BFC1F34215C2
:101AC00001F01F03012606FA03F3012D02D19689C6
:101AD000334006E0022D02D1168A334001E0968A97
:101AE00033400C12012606FA04F41688344013B170
:101AF0000CB1012000E0002070BDF0B503460024C9
:101B000000260025002040F66A17B94200D100BF28
:101B10001846C1F3421401F01F06012707FA06F523
:101B2000012C01D10C3004E0022C01D1103000E076
:101B300014301AB107682F43076002E00768AF430B
:101B40000760F0BD2DE9F04786B005460E4600243B
:101B5000A24600BFA1460027B08900B100BF2F46B2
:101B60002C8A4CF6FF700440F08804432C82AC8928
:101B70004EF6F3100440B088318908437189084358
:101B80000443AC81AC8A4FF6FF400440B089044363
:101B9000AC8201A8FFF7D2F91F48874202D1DDF8D5
:101BA00010A001E0DDF80CA0A88900F4004040B1CD
:101BB0000AEBCA0000EB0A1031684900B0FBF1F8EB
:101BC00007E00AEBCA0000EB0A1031688900B0FB9D
:101BD000F1F86420B8FBF0F004012009642101FB56
:101BE0001089A88900F4004040B1322000EBC90000
:101BF000B0FBF1F000F00700044308E0322000EBF6
:101C000009106421B0FBF1F000F00F0004432C81B7
:101C100006B0BDE8F0870000003801400146888822
:101C2000C0F308007047C1F308028280704700BF0C
:101C3000FEE700000FB4054B10B503A9044A029853
:101C400000F018F810BC5DF814FB000061200008DB
:101C50000801002002E008C8121F08C1002AFAD1BA
:101C600070477047002001E001C1121F002AFBD11C
:101C7000704700002DE9FF4F8DB09B460F4604468C
:101C8000002606E025280BD05A460F999047641C81
:101C9000761C20780028F5D111B03046BDE8F08FD1
:101CA0000025A8460122984900E0054314F8013FA9
:101CB000203B02FA03F00842F7D120782E2817D1F2
:101CC00014F8010F45F004052A280ED06FF02F02FA
:101CD0002078A0F1300109290AD808EB880102EB2D
:101CE000410100EB0108641CF2E757F8048B641C07
:101CF00020786C280DD004DC4C2812D06A2811D131
:101D000004E074280DD07A280CD10AE045F40015BF
:101D100007E0617845F48015814202D1641C05F525
:101D20008015641C2078692844D008DC0028B3D0D2
:101D3000582867D063280FD0642808D13AE070286B
:101D400065D0732812D075285AD078285AD05A46B0
:101D50000F999047761CD5E017F8040B8DF800001A
:101D600000208DF80100E946012003E057F8049BAC
:101D70004FF0FF3069074FF0000501D40AE06D1CF9
:101D800045450DDA8542FADB19F805100029F6D130
:101D900006E06D1C8542FCDB19F805100029F8D11E
:101DA0002E4404E019F8010B5A460F9990476D1E16
:101DB000F8D2A7E00A200021CDE90801C5F30250BE
:101DC00002280CD001CFC117021E71F100020CDAFB
:101DD0000023D0EB030063EB01012D2208E0FF1D7F
:101DE00027F00707F7E80201EEE72A0504D52B22C2
:101DF0008DF8282001223CE0EA073AD02022F7E7BC
:101E00000A2000E010200021CDE9080107E01020A1
:101E1000002145F00405CDE908014FF00808C5F39D
:101E20000250022810D001CF00214FF0000A2A07EB
:101E300020D52278702A0DD0DDE908C38CF0100C73
:101E40005CEA030C0CD015E0FF1D27F00707F7E84C
:101E50000201EAE740228DF828204FF0010A0CE049
:101E600050EA010306D030238DF828308DF8292060
:101E7000022292462278582A04D024A20DF1200989
:101E80000B9209E026A2F9E7DDE90823FEF790F9B5
:101E90000B9B9B5C09F8013D50EA0102F4D1ADEBCC
:101EA000090020300890680701D44FF00108089914
:101EB000884503DD0898A8EB000000E0002080467C
:101EC000002506E00AA85A46405D0F9990476D1C10
:101ED000761C5545F6DB04E030205A460F999047B2
:101EE000761CB8F10001A8F10108F5DC05E019F84D
:101EF000010B5A460F999047761C0899481E089086
:101F00000029F4DC641CC4E60928010030313233B6
:101F10003435363738396162636465660000000025
:101F2000303132333435363738394142434445460F
:101F3000000000001FB502A903A8FEF74EFA9DF8A5
:101F40000C000A2190FBF1F030301C4908709DF81C
:101F50000C000A2190FBF1F201FB1200303017490E
:101F600048700020887008461821CDE900101448F8
:101F70004388028841215F20FEF793FE9DF8080008
:101F80000A2190FBF1F030300E4908709DF80800EE
:101F90000A2190FBF1F201FB120030300949487030
:101FA0000020887008461821CDE9001004484388B5
:101FB00002885F210846FEF774FE1FBD0000002066
:101FC0001E000020030000200146114A12884A43E7
:101FD0004FF0E0235A6100229A611A46126942F0DA
:101FE00001021A6100BF4FF0E022106900F0010207
:101FF0001AB100F48032002AF5D04FF0E0221269C5
:1020000022F001024FF0E0231A6100229A6170472A
:10201000280000200146114A12784A434FF0E0237D
:102020005A6100229A611A46126942F001021A614D
:1020300000BF4FF0E022106900F001021AB100F475
:102040008032002AF5D04FF0E022126922F001021E
:102050004FF0E0231A6100229A61704726000020A9
:1020600070B504460D46E1B20548FFF7DCFD00BF40
:1020700080210348FFF70AFD0028F9D0204670BDF3
:10208000003801408CB00024DEA74820FFF74CF850
:102090004FF4A060FEF716FFFEF7B2FEFEF7ECF875
:1020A000FEF778FA4FF41650FFF752FB4FF4165034
:1020B000FFF7D4FB4FF41650FFF76CFCFFF70EF957
:1020C000D14840F2731340F2DF12511C00900120FE
:1020D000FEF7A2FD1F20CD490880CDA20A21502085
:1020E000FEF74CFC0020C9490880CEA23C211420F8
:1020F000FEF71EFDCDA23E217820FEF719FD00203F
:1021000018233A22412100905020FEF7A3FBC8A2D9
:102110005A211420FEF70CFD002018233A225F21DB
:1021200000905020FEF796FB0020182325225F2107
:1021300000907D20FEF78EFBBFA01821CDE9001096
:10214000BE48438802885F218A20FEF7AAFDBCA210
:1021500078211420FEF7ECFC002018233A227D2180
:102160000090CD20FEF776FBB9A01821CDE9001034
:10217000B248438802887D21FF20FEF792FDB5A278
:1021800096211420FEF7D4FC002018233A229B212C
:1021900000908E20FEF75EFBB1A2B4211420FEF762
:1021A000C7FC002018233A22B92100908E20FEF7A8
:1021B00051FBAEA2D2211420FEF7BAFC0020182356
:1021C0003A22D72100905020FEF744FBA9A2F0212B
:1021D0001420FEF7ADFC002018233A22F5210090D0
:1021E0005020FEF737FBA5A24FF487711420FEF7AD
:1021F0009FFC002018233A2240F213110090502037
:10220000FEF728FB9FA24FF496711420FEF790FC76
:10221000002018233A2240F2311100905020FEF79E
:1022200019FB4FF47840794908800A20FFF7CCFE6B
:10223000E7E0FEF7A5F9012808D1FEF743F893A2DD
:1022400040F26D115020FEF705FC07E0FEF730F874
:1022500091A240F26D115020FEF7FCFB1920FFF710
:10226000B3FE9048008800F40040002858D039465A
:102270008D48FDF77BFF064609E003A840F824607F
:1022800039460020FDF772FF0646601CC4B2002EDE
:10229000F3D118210798CDE90010684843880288D7
:1022A0009B210846FEF7FDFC18210898CDE9001097
:1022B000624843880288B9219B20FEF7F2FC18216E
:1022C0000398CDE900105D4843880288D7215F203C
:1022D000FEF7E7FC18210498CDE900105748438821
:1022E0000288F5215F20FEF7DCFC18210A98CDE971
:1022F000001052484388028840F213115F20FEF715
:10230000D0FC18210998CDE900104C484388028878
:1023100040F231115F20FEF7C4FC002061490880C3
:102320000A20FFF751FE6148007860494978084467
:102330005E49897808445D49C97808445B49097950
:102340000844C0B259494979884213D10020182164
:10235000CDE9001055488178407801EB0022032335
:102360007D21D720FEF7D0FC50488178407801EBE2
:10237000002085B21920FFF727FE4D4800784D490F
:1023800081F825004A48407881F826004A480078BC
:1023900081F832004848407881F83300642095FB8A
:1023A000F0F0303081F84B000A2095FBF0F00A2164
:1023B00090FBF1F201FB120030303E4981F84C00F5
:1023C0000A2095FBF0F100FB11503030394981F8BB
:1023D0004D00FFF799FA601CC4B2142094FBF0F191
:1023E00000FB114048B93548006808B9012000E0F9
:1023F000002032490860FFF79DFD0A20FFF7E4FD49
:1024000000BF16E72C000000C02400081A000020BE
:10241000BBB7BEB3BCE0B2E2CFB5CDB3D1DDCABE6F
:1024200000000000CEC2B6C800000000A1E6000017
:10243000CAAAB6C800000000524800001E000020D2
:10244000B6FED1F5BBAFCCBCC5A8B6C80000000035
:1024500050504D00B1B1BEA9CAB1BCE400000000AB
:10246000B1B1BEA9C8D5C6DA00000000BEADB6C87D
:1024700000000000CEB3B6C800000000BABDCFF225
:1024800000000000CBD9B6C800000000B9A4D7F7FF
:10249000CAB1D5FDB3A30000C7EBD4B6C0EBBBF007
:1024A000D4B40000FA0000200C0100209C0200209F
:1024B0000000002030000020030000209481214211
:1024C0000010DF017301011B220022002200220004
:1024D00022002200220022002200220022002200EC
:1024E00022002200220022002200220022002200DC
:1024F00022002200220022002200220022002200CC
:1025000022002200220022002200220022002200BB
:1025100022002200220022002200220022002200AB
:10252000220022002200220022002200220022009B
:10253000220022002200220022002200220022008B
:10254000220022002200220022002200220022007B
:10255000220022002200220022002200220022006B
:10256000220022002200220022002200220022005B
:10257000220022002200220022002200220022004B
:10258000220022002200220022002200220022003B
:10259000220022002200220022002200220022002B
:1025A000220022002200220022002200220022001B
:1025B000220022002200220022002200220022000B
:1025C000220022002200220022002200220001001C
:1025D000220022002200220022002200010022000C
:1025E000220022000200220022002200020022001B
:1025F00022002200220022002200220022002200CB
:1026000023002200220022002200220022002200B9
:1026100022002200220022000200220002002200EA
:1026200002002200220022002200020022002200DA
:1026300022002200220022000200220023002200A9
:10264000220022002200220022002200220022007A
:10265000220022000100220022002200220022008B
:10266000220022002200220022002200020022007A
:102670002200220022002200230022002200220049
:102680000100220001000100010001002200010000
:10269000010001002300010022002200220022008C
:1026A000220022002200220022002200220022001A
:1026B000220022002200020022000100220022004B
:1026C00022002200220022002200220022002200FA
:1026D000220022002200010022002200220022000B
:1026E000220022002200020022002200020022001A
:1026F00022002200220022002200220022002200CA
:10270000020022000100010002002200220022003B
:1027100022000200220022002200220022002200C9
:1027200022002200220022002200220002002200B9
:1027300022000100220022000200220022002200CA
:1027400022002200010002000200220022000200FA
:1027500002002200220022002200010001002200CB
:102760000100010001000100010001000100010061
:10277000010001000100010022000100010022000F
:1027800001000100220001002200220022000100BD
:1027900001002200010001002200010001000100EF
:1027A00001002200010022000100010002000100DE
:1027B00001002200010001000100220001002200AE
:1027C000010001000100220022000100210022007E
:1027D00001000100010001000100010001000100F1
:1027E000220022000100010001000100010022007E
:1027F000220022000100010001002200010001006E
:10280000220001000100220022000100010001005D
:10281000010022002200010001000100010001006E
:10282000010001000100010001002200010001007F
:1028300001002200210021002200220001000100ED
:10284000010001000100010001002200220021001E
:10285000010001000100010001000100010022004F
:1028600022000100010001000100010022002100FE
:1028700001000100010001002100220022000100EE
:10288000010001000100220022002200220022009B
:102890002200220022002200220022002200220028
:1028A0002200220022002200220022002200220018
:1028B0002200220022002200220022002200220008
:1028C00022002200220022002200220022002200F8
:1028D00022002200220022002200220022002200E8
:1028E00022002200220022002200220022002200D8
:1028F00022002200220022002200220022002200C8
:1029000022002200220022002200220022002200B7
:1029100022002200220022002200220022002200A7
:102920002200220022002200220022002200220097
:102930002200220022002200220022002200220087
:102940002200220022002200220022002200220077
:102950002200220022002200220002002200220087
:102960002200220022002200220022002200220057
:102970000200220022002200220022002200220067
:102980002200220022002200220022002300220036
:102990000200020022002200220002002200220087
:1029A0002200220022002200220022002200220017
:1029B0002200220022002200220022000200220027
:1029C00022002200220022002200220022002200F7
:1029D0000100220002000200220022002200220048
:1029E0002200020001000100220022002200220039
:1029F00022002200220022002200220042002200A7
:102A000022002200220002002200220002002200F6
:102A100001000100220022002200220022002200E8
:102A200022002200220022002200020022002200B6
:102A300022002200220022002200020022000100C7
:102A40002200220022000100220022002200220097
:102A50002200020022002200220022002200220086
:102A60002200220022002200220022002200220056
:102A700002002200220022000200220022000100A7
:102A80002200220022002200220022000200220056
:102A90002200220022002200220022002200010047
:102AA0002200220022000200220002000200220076
:102AB0002200220022000100220022002200220027
:102AC0002200220002002200010022002200220037
:102AD0002200220002002200220022002200220006
:102AE00022002200220023002200220022002200D5
:102AF0000100220002002200220022002200220007
:102B000022002200210002002200220022002200D6
:102B1000220001000200010001000100010001008B
:102B2000010001002200010022000100010001005B
:102B3000010001000100220001000100010022004B
:102B400022002200010001002200220001000100F9
:102B5000010001002200010022000100010001002B
:102B600001002200010001002200220001002200D9
:102B700022000100220002002200010001000100E9
:102B800001002200010022000100010001002200DA
:102B9000010001000100010001000100010022000C
:102BA00022000100010001000100010001000100FC
:102BB000210001002200010001002100220001008B
:102BC00001000100220022000100010001000100BB
:102BD00001000100010022000100010001000100CC
:102BE000010001000100010001002200220001009B
:102BF000010002000100010001002100010021008C
:102C0000210022002200210001000100210001001A
:102C1000010001000100010001002100010001008C
:102C20002100010001000100220022002200010019
:102C3000010001000100010001002100010001006C
:102C400001000100220022002200220022000200D6
:102C50002200220022002200220022002200220064
:102C60002200220022002200220022002200220054
:102C70002200220022002200220022002200220044
:102C80002200220022002200220022002200220034
:102C90002200220022002200220022002200020044
:102CA0002200220022002200220022002200220014
:102CB0002200220022002200220022002200220004
:102CC00022002200220022002200220022002200F4
:102CD00022002200220022002200220022002200E4
:102CE00022002200220022002200220022002200D4
:102CF00022002200220002002200220022002200E4
:102D000022002200220022002200220022002200B3
:102D100022002200220022000200220022002200C3
:102D20002200220022002200220022002200220093
:102D30002200220022002200220022002200220083
:102D40002200220022002200220002002200220093
:102D500002000100220022002200220022002200A4
:102D60002300220022000200220022002200220072
:102D70000200220022000200220022002200420063
:102D80000100220022002100220002002200220075
:102D90000200220022002200220022002200420023
:102DA0000200220002002200220022002200220053
:102DB0002200220022000200220022002200210024
:102DC0002200220002002200220022000200020053
:102DD0002200220001000200220022000200220044
:102DE00022002200010022002200220022002200F4
:102DF0002200220022002200220002002200010004
:102E00002200010022000100220001002200010036
:102E10002200220001000200220002000100220024
:102E200022002200220022000100020022002200D3
:102E300022002200220022002200220022000200A2
:102E40002200220022002200220022002200220072
:102E500022002200220002002200220002002200A2
:102E60002200220022002200010002002200220093
:102E70002200220022002200220022002200210043
:102E80002200220022002200220022002200010053
:102E90002200220001002200220022002200020063
:102EA0002200220022002200220001000100010075
:102EB0002200220022002200230001000100220043
:102EC0002200020001000200220022002200220053
:102ED00001000100010001000100010001000100EA
:102EE0000100010001000100210001002200010099
:102EF0000100220001000100010001000100220088
:102F00002200010001000100220001002200010056
:102F10000100220001000100010001000100010088
:102F200001002200220022000200010022002200F3
:102F300042002200220022000100010001000100E5
:102F40002200010001000100220001000100220016
:102F50002200010001000100220001002200010006
:102F600001002200010021000100220022000100D6
:102F700001000100220001002200010002002200E5
:102F800001000100010021000100220001000200F7
:102F900001000100220022000100010001000100E7
:102FA00001000100220022002200010001000100B6
:102FB0002200010001000100210021000100220087
:102FC00022000100220001000100010001000100B7
:102FD00001000100010001002200220001000100A7
:102FE00001000100010001000100010022000100B8
:102FF00001000100010022000100010001000100A8
:1030000001002200220022000200220022002200F1
:1030100022002200220022002200220022002200A0
:103020002200220022002200220022002200220090
:103030002200220022002200220022002200220080
:103040000200220022002200220022002200220090
:103050002200220022002200220022002200220060
:103060002200220022002200220022002200220050
:103070002200220022002200220022002200220040
:103080002200220022002200220022002200220030
:103090002200220022002200220022002200220020
:1030A0002200220022002200220022002200220010
:1030B0002200220022002200220022002200220000
:1030C0002200220022002200020022002200220010
:1030D00022002200220022002200220022002200E0
:1030E00022002200220022000200220022002200F0
:1030F00022002200220022002200220022002200C0
:1031000022002200220022002200220022000200CF
:10311000220022002200220022002200220022009F
:10312000220022002200220022002200220022008F
:10313000220022002200220022002200220022007F
:1031400022000200220001004200220022000100B1
:1031500022002200010023000100220022002200A0
:103160000100220022002200220022002200220070
:10317000220022000200220022002200220022005F
:10318000220022002200220022002200220022002F
:10319000020002002200220022002200220022005F
:1031A000220022002200220022002200220022000F
:1031B0002200220022000200010022002200220040
:1031C0004200220022002200220022000100010011
:1031D0000100010001000100010022002200220084
:1031E000220022002200020022002200220002000F
:1031F0000200220022002200220001002200220000
:10320000220022002200220022002300430022008C
:1032100022002200020002002200220022000100FF
:1032200022000200020022002200220022002200CE
:1032300002000200020022002200220022002200DE
:1032400022002200220002000100220002002200CF
:10325000220022002200220022002200220002007E
:10326000220022002200220001002200020022008F
:1032700022002200220022002200010002000100A0
:10328000220002002200020022000200220022008E
:103290000100010022002200220001002200220081
:1032A00022000100010001000100010001002200D4
:1032B00001000100220001000100220001002200A3
:1032C00001002200010001000100010001002200B4
:1032D0002200020022002200010001002200010061
:1032E0000100010001000100010022002200010094
:1032F0000100220022002200010001002200010042
:103300002200010001000100220001002200010052
:1033100001000100010001000100010001000100A5
:103320000100220001002200010001000100010053
:103330002200010022000100010002000100010042
:103340000100010001000100220022002100010013
:103350000100220001002200220001000100010002
:103360002200010001000100010002000100010033
:1033700001002100010021002100010001002200C4
:103380000100010001002200010001000100010014
:10339000220022002200220022002200210001003F
:1033A0000100210021000100220001002200220072
:1033B00001000100010001000100210022002100A4
:1033C000020022002200220022002200220022000D
:1033D00022002200220022002200220022002200DD
:1033E00022002200220022002200220022002200CD
:1033F00022002200220022002200220022002200BD
:1034000022002200220022002200220022002200AC
:10341000220022002200220022002200220022009C
:10342000220022002200220022002200220022008C
:10343000220022002200220022002200220022007C
:10344000220022002200220022002200220022006C
:10345000220022002200220022002200220022005C
:10346000220022002200220022002200220022004C
:10347000220022002200220022002200220022003C
:10348000220022002200220002002200220022004C
:10349000220022002200220022002200220022001C
:1034A000020022002200220002002200220022004C
:1034B000220022002200220022002200220002001C
:1034C00022002200220022002200220022002200EC
:1034D00022002200220022000200220022002200FC
:1034E000220022002200220022000200020022000C
:1034F00022000200220002002200220022002200FC
:1035000022002200220022002200220002002200CB
:1035100022002200220001000200220022002200DC
:10352000220022002200220042002200220022006B
:10353000220022002200220022002200220022007B
:1035400021002200220022000100020022000100CE
:10355000020022002200220022002200220022007B
:10356000220022002200220022002200220022004B
:10357000220022002200010022000100220002009D
:1035800001002200220022000100010001000100D0
:1035900001000100010022000200220001000200DF
:1035A000010002000200220002002200220022008C
:1035B00022002200220022002200220022002200FB
:1035C00042002200220022002200220022002200CB
:1035D00022002200220002002200220022002200FB
:1035E00022002200220022002200220022002200CB
:1035F00022000200220022002200220022002200DB
:1036000022002200220002002200220022002200CA
:10361000220002000100010022002200020002003C
:1036200022002200220022002200220002000200CA
:10363000220022002200220022000200220022009A
:10364000220022002200220022002200220022006A
:1036500001000100220022000100010001002200FF
:103660000100010001000100010001000100010052
:1036700001002200010001000100220022000100DF
:1036800001002200010022000200220022000200AC
:10369000010022002200220001000100010022009E
:1036A000010001002200010001002200220022008E
:1036B000010001000100220022002200220021005E
:1036C00001000100010001000100010022000100D1
:1036D00001000100010001000100010001000100E2
:1036E0000100010022000100220001000100010090
:1036F000010001002200220022002200220001001D
:10370000010021000100020001000100020022006E
:10371000010001000100220002000100010022005E
:103720000100210021000100020001000100010050
:103730000100010001000100010001000100010081
:103740002100010001002100210001000100010011
:103750000100010021000100010021000100210001
:103760000100010021000100010001000100010031
:10377000020001000100010001000100010022001F
:103780002200220022002200220022002200220029
:103790002200220022002200220022002200220019
:1037A0002200220022002200220022002200220009
:1037B00022002200220022002200220022002200F9
:1037C00022002200220022002200220022002200E9
:1037D00022002200220022002200220022002200D9
:1037E00022002200220022002200220022002200C9
:1037F00022002200220022002200220022002200B9
:1038000022002200220022002200220022002200A8
:103810002200220022002200220022002200220098
:103820002200220023002200220022002200220087
:103830002200220022002200220022002200220078
:103840002200220022002200220022002200220068
:103850002200220022002200220022002200220058
:103860002200220022002200220022002200220048
:103870002200220022002200220022002200220038
:103880002200220022002200020022002200220048
:103890002200220022002200220022002200220018
:1038A0002200220022002200220022002200220008
:1038B00022002200220022002200220022002200F8
:1038C0002200220002000100220002002200220049
:1038D00002004200220022002200220022002200D8
:1038E00022000200230022002200220022002200E7
:1038F00022002200220022002200220022002200B8
:1039000022002200220022002200220022002200A7
:1039100002002200220022002200220022002200B7
:1039200022002200220022002200020022002200A7
:1039300022000100020001002200010022002200FA
:10394000220022000100010001000100010022000C
:1039500022002200220022000200020002002200B7
:1039600022000200220002002200220022000200A7
:103970002200220022002200220022002200220037
:103980002200220022002200220022002200220027
:103990000200220022002200220002002200020077
:1039A0002200220022000200220022000200220047
:1039B0000200220022002200220002002200220037
:1039C0002200220002000200220022002200220027
:1039D0002200220002002200220022002200020017
:1039E0002200020002002200020022002200220027
:1039F0002200220022000100010022000200220019
:103A00002200220022002200020002000200220006
:103A100022002200020022002200220022002200B6
:103A2000220001000100010001002100010022002C
:103A3000010001000100010001002200220001003C
:103A400001002200220022002200220001002200A8
:103A500001002200010001002200010001002200FB
:103A600001002200010001000100420001002200CB
:103A70002200020002002200220001002200220097
:103A800001000100010001002200220001000100EC
:103A900022000100010001000100010001002200DC
:103AA00022000100010022000100010001000100CC
:103AB000220022000200010001000100010022009A
:103AC000010021000100220022000100210001006C
:103AD00001000100010001000100010001000100DE
:103AE00001000100010001000100010001000100CE
:103AF000010001000100210021000100020021005D
:103B0000210001000100220001000100010001006C
:103B1000210001000100010022000100010001005C
:103B2000010022000100010001002200210001002B
:103B3000010001002100010001000100220022001B
:103B40002200220022002200220022002200220065
:103B50002200220022000200220022002200220075
:103B60002200220022002200020022002200220065
:103B70002200220022002200220022002200220035
:103B80002200220022002200220022002200220025
:103B90002200220022002200220022002200220015
:103BA0002200220022002200220022002200220005
:103BB00022002200220022002200220022002200F5
:103BC00022002200220022002200220022002200E5
:103BD00022002200220022002200220022002200D5
:103BE00022002200220022002200220022002200C5
:103BF00022002200220022002200220022002200B5
:103C000022002200220022002200220022002200A4
:103C10002200220022002200220022002200220094
:103C200022002200220022000200220022002200A4
:103C30002200220022002200220022002200220074
:103C40002200220022002200220022002100220065
:103C50002200220022002200220022000200220074
:103C60000200220022002200220022002200210065
:103C70002200220022002200220002000200220074
:103C80002200220002002200220022002200020064
:103C90002200220002002200010022002200220055
:103CA0002200220022002200220022002200220004
:103CB0002200220022002200220002002200220014
:103CC00022002200220022002200220022002200E4
:103CD00022002200220022002200220022004200B4
:103CE00022002200220022002200220022002200C4
:103CF00001002200020042000200220022002200F5
:103D00002200010001002200010022002200220006
:103D10002200220002000200020022000200020033
:103D200022000200220002002200220022002200C3
:103D30002200220023002200220022002200220072
:103D40002200220022002200020022002200220083
:103D50004200220022000200220022002200220053
:103D60002200020022002200220001002200220084
:103D70002200220022002200220022002200220033
:103D800002000200020022002200220002002200A3
:103D90000100220022002200220002002200020074
:103DA0002200020022000200020022002200020083
:103DB0002200220002000200020002002200020093
:103DC0000200220022002200220002002200220023
:103DD00022000100220022002200220022002200F4
:103DE0000100220001002100020001000100010089
:103DF0000100020001000100010001002200010099
:103E00000100010021002200220022002200010006
:103E10002200010001000100220001002200010037
:103E200022002200220001000100220001002200E5
:103E300022002200010022002200220001002200B4
:103E40000100010001000100220001002200010028
:103E50000100010022000100010001000100010039
:103E600001002200210001002200220001000100C7
:103E700001002100010022002200010001000100D8
:103E800001002100220001002200220001000100A7
:103E90002200010022000100010022000100220096
:103EA000010001000100010001000100010001000A
:103EB00001000100010001000100010001000100FA
:103EC00022000100010001000100010021000100A9
:103ED0000100010022002200010001000100010098
:103EE0002200010001000100210001000100210069
:103EF0000100010021000100010002002200220057
:103F000022002200220022002200220022002200A1
:103F10002200220022002200220022002200220091
:103F20002200220022002200220022002200220081
:103F30002200220022002200220022002200220071
:103F40002200220022002200220022002200220061
:103F50002200220022002200220022002200020071
:103F60002200220022002200220022002200220041
:103F70002200220022002200220022002200220031
:103F80002200220022002200220022002200220021
:103F90002200220022002200220022002200220011
:103FA0002200220022002200220022002200220001
:103FB00022002200220022002200220022002200F1
:103FC0002200220022002200220022002200020001
:103FD00022002200220002002200220022002200F1
:103FE00022002200220022002200220022002200C1
:103FF00022002200220022002200220022002200B1
:1040000022002200220022002200220022002200A0
:104010002200220022002200220022002200220090
:104020002200220022002200220022002200220080
:10403000220022002200220022002300220022006F
:104040002200020022002200220022002200220080
:104050002200020022002200220022002200220070
:104060002200220022002200220022002200220040
:104070002200220022002200220022002200220030
:104080002200220022002200220022002200220020
:104090002200220022002200220001002200220031
:1040A0002200220022002200220001002200010042
:1040B0002200220022002200020001002200220031
:1040C0002200220001002200220022002200020021
:1040D0002200010022000200220002002200220031
:1040E00022002200220022002200220022002200C0
:1040F00022002200220022002200220022002200B0
:1041000022002200220002002200220022002200BF
:1041100022002200020022002200020022002200CF
:1041200022002200020022000100220022002200C0
:1041300022002200220022000100220001002200B1
:1041400022002200220022000100010022000100C2
:10415000220022000200220022002200220022006F
:1041600022002200020001000100010002002200E2
:1041700001002200020022002200020022000200B0
:104180000200220022002200010022002200010081
:104190002200010022000100220022002200020071
:1041A0002200220022000200010001002200210062
:1041B00022002200010001000100010001000100B5
:1041C0000100220002000200220022002200220040
:1041D0000100010022002200010001000100010095
:1041E0002200010001000100010001000100220085
:1041F00022000100020022002200220022002200F0
:1042000001000100010001000100010001000100A6
:104210000100010001000100010001000100010096
:104220000100010022002200020001002100010023
:104230000100010022000200010001000100010054
:104240000100010001000100010022000100210025
:1042500001000100220001002200220001002200D2
:104260000100010001000100010001000100010046
:104270000100010001000100020022000100010014
:1042800001002100010022002100010001000100C5
:1042900021000100010001000100210001000100D6
:1042A00022002100010001000100010001000100C5
:1042B0002200220021000100020022002200220030
:1042C00022002200220022002200220022002200DE
:1042D00022002200220022002200220022002200CE
:1042E00002002200220022002200220022002200DE
:1042F00022002200220022002200220022002200AE
:10430000220022002200220022002200220022009D
:10431000220022002200220022002200220022008D
:10432000220022002200220022002200220022007D
:10433000220022002200220022002200220022006D
:10434000220022002200220022002200220022005D
:10435000220022002200220022002200220022004D
:10436000220022002200220022002200220022003D
:10437000220022002200220022002200220022002D
:10438000220022002200220022002200220002003D
:10439000220022000200220022002200220022002D
:1043A00022002200220022002200220022002200FD
:1043B00022002200220022002200220022002200ED
:1043C00022002100220022000200220022002200FE
:1043D00022002200220022002200220022002200CD
:1043E00022002200210022002200220022002200BE
:1043F00022002200220022002200220022002200AD
:1044000022002200220022000200020022002200DC
:1044100022000200220022002200220022002200AC
:10442000220022002200220022002200220022007C
:10443000220022002200220022002200220022006C
:10444000220022002200220022002200220022005C
:10445000220022002200220001002200220022006D
:10446000220022002200020022000100220022007D
:1044700002000200020002000200220022002200CC
:10448000220022000200220022002100010001007F
:10449000010002002200020022002200220022006D
:1044A000220022002200220022002200020022001C
:1044B00022002200220022002200220022002200EC
:1044C00022002200220022002200220022002200DC
:1044D00022002200220022002200220002002200EC
:1044E00022000200220022002200220022000200FC
:1044F00022002200220022000200220022002200CC
:1045000022000200220022000200020022002200FB
:1045100022002200020022002200020022002200CB
:10452000220001002200220001000200020002001D
:1045300002002200220002002200020022000100EC
:1045400022002200220022000100010002002200BD
:104550002200010001000100010001002200010011
:1045600001000100010022002200220001000100E0
:1045700022000100220001000100010001000100F1
:10458000220001002200220022002200010001007E
:1045900001000200010001002200010022002200AF
:1045A00022002200010001000100010022000100A0
:1045B00001000200220002000100220001000100AF
:1045C00001000100010001000100220001000100C2
:1045D00001000100010001000100010001000100D3
:1045E0002200210022002200210001000100010020
:1045F0002200220001000100220001000100010050
:10460000010002002200220001000100010001005F
:104610000100010001000100010022000100010071
:104620002200010001000100010001000100010061
:104630000100010001000100010001000100210052
:104640002100010022000100010001000100010021
:1046500001000100010021000100010022002200F0
:104660000100010001000100010001000100220021
:10467000220001002100220022002200220022004C
:10468000220022002200220022002200220022001A
:10469000220022002200220022002200220022000A
:1046A00022002200220022002200220022002200FA
:1046B00022002200220022002200220022002200EA
:1046C00022002200220022002200220022002200DA
:1046D00022002200220022000200220022002200EA
:1046E00022002200220022002200220022002200BA
:1046F00022002200220022002200220022002200AA
:104700002200220022002200220022002200230098
:104710002200220022002200220022002200220089
:104720002200220022002200220022002200220079
:104730002200220022002200220022002200220069
:104740002200220022002200220022002200220059
:104750002200220022002200220022002200220049
:104760002200220022002200220022002200220039
:104770002200220022002200020022002200220049
:10478000220022002200210022002200220022001A
:104790002200220022002200220022002200220009
:1047A00022002200220022002200220022002200F9
:1047B00043002200220022002200220022002200C8
:1047C00022002200220022002200220022002200D9
:1047D00001000200420022002200220022002200EA
:1047E00022002200220022002200220022002200B9
:1047F00022002200220022002200220022002200A9
:104800002200220022002200220022002200220098
:1048100022002200220022000100220022002200A9
:1048200022000200020022002200220022002200B8
:1048300022000100020002002100220021002200CB
:10484000220022002200220022002200010001009A
:104850000200220022002200020022002200220088
:104860000200220022002200220022002200010079
:104870000100220022002200220022002200220049
:104880002200220022002200220022002200220018
:104890002200220022002200220022002200220008
:1048A0002200020022002200220022002200220018
:1048B00022002200220022002200220022002200E8
:1048C00022002200220022000200220022002200F8
:1048D000220022002200220001000200010002004A
:1048E00022002200220001002200220022002200D9
:1048F00022002200220022002200220022002200A8
:1049000022000100220022002200220022002200B8
:10491000220001000100010001000100010001006E
:10492000010001000100010001000100220001005E
:10493000010001000100010001002200220001002D
:1049400001002200220022000100220001002200BA
:1049500022000100220022002200010022000200A9
:10496000220001000100010022002200220022009A
:1049700001002200220001002200010001000100CC
:1049800001000100010001002200010001000100FE
:10499000220022002200010022002200010001006A
:1049A000220001002200010001002200010001009C
:1049B00001000100010001000100010001002100CF
:1049C000010001000100210001002200010022007D
:1049D000010001000100010022002200220022004B
:1049E000220001002100220001002200010021001C
:1049F000210021000100010001002200210001002E
:104A0000220022000100010001002100010001003C
:104A1000010001002200220001002200010022000A
:104A200001000100210021000100210022000100FD
:104A300001000100220022002200220022002200A8
:104A40002200220022002200020022002200220076
:104A50002200220022002200220022002200220046
:104A60002200220022002200220022002200220036
:104A70002200220022002200220022002200220026
:104A80002200220022002200220022002200220016
:104A90002200220022002200220023002200220005
:104AA0002200220002002200020022002200220036
:104AB00022002200220022002200220022002200E6
:104AC00022002200220022002200220022002200D6
:104AD00022002200220022002200220022002200C6
:104AE00022002200220022002200220022002200B6
:104AF00022002200220022002200220022002200A6
:104B000022002200220022002200020022002200B5
:104B10002200220022002200220022002200220085
:104B20002200220022002200220022002200220075
:104B30002200220022002200220022002200220065
:104B40002200220022002200220022002200220055
:104B50002200220022002200220022002200220045
:104B60002200020022002200220023002200220054
:104B70002100220022002200220001002200220047
:104B80002200220022002200220022000200220035
:104B90002200220022002200220022002200220005
:104BA00022002200220022002200220022002200F5
:104BB00022002200220022002200220022002200E5
:104BC00022002200220022002200220022002300D4
:104BD00022002300220022002200220022002200C4
:104BE0000200020022002200220022000100220016
:104BF00022000100220001002200220022002200E7
:104C00002200020001002200220002000100220016
:104C100022002200220022002200220002002200A4
:104C20002200220022002200220022002200220074
:104C30002200220022002200220022002200220064
:104C40000200220022002200220022002200220074
:104C500001002200220022000100220022000100A7
:104C60000100020022002200220022002200220075
:104C70000100220022002200220022002200220045
:104C80002200210022002200220002002200220035
:104C90002200020022002200020002002200220064
:104CA0002200010022000200220022002200220035
:104CB0002200220022002200220002002200220004
:104CC00022002200220022000100220022002200F5
:104CD000010001000100010001000100220022008A
:104CE000010002000100220001000100010001009A
:104CF0000100220001002200020022002200010027
:104D00002200220001000100220001000200220016
:104D10002200010001000100010022002200220007
:104D200022000100010022002200020022002200D5
:104D300002000100220022000100220022000100E6
:104D40000100220001000100010001000100220019
:104D50000100010001000100010022000100220009
:104D60000100220022000100220001002100220097
:104D7000010001000100010022000100010001000A
:104D800022000100010001002200010001000100D9
:104D900001000100010022000100010001000100EA
:104DA00001000100010021000100010001000200DA
:104DB000010021002100010022000100010021006A
:104DC000220001000100010001002100010001009A
:104DD000010001002200010001000100210001008A
:104DE000010001000100210001000100210001007B
:104DF00022002200220022002200220022002200A3
:104E00002200220022002200220022002200220092
:104E100022002200220022002200220022000200A2
:104E20002200220022002200220022002200220072
:104E30002200220022002200220022002200220062
:104E40002200220022002200020022002200220072
:104E50002200220022002200220022002200220042
:104E60002200220022002200220022002200220032
:104E70002200220022002200220022002200220022
:104E80002200220022002200220023002200220011
:104E90002200220023002200220022002200220001
:104EA00022002200220022002200220022002200F2
:104EB00022002200220022002200220022002200E2
:104EC00022002200220022002200220022002200D2
:104ED00022002200220002002200220022002200E2
:104EE00022002200220022002200220022002200B2
:104EF00022002200220022000200220022002200C2
:104F00002200020022002200220042002200220091
:104F100022002200220022002200220001002200A2
:104F20002200220022000200220022002200220091
:104F30002200220022002200220022002200220061
:104F40002200220022002200220022002200020071
:104F50002200220022002200020023002200220060
:104F60002200220022002200020022002200220051
:104F70002200220022002200220022002200220021
:104F80002200220022002200220022002200220011
:104F90002200220022002200020022002200220021
:104FA0000100020002002300220022000100220072
:104FB0002200220022002200220022002200010002
:104FC00002002200220042002200220022002200D1
:104FD00022002200220022002200220022002200C1
:104FE00022002200220022002200220022002200B1
:104FF00022002200220022000200220022002200C1
:1050000022002200010022002200220022002200B1
:1050100022000200220002002200020022002200E0
:105020000200220022002200220022002200220090
:105030002200220022002200020022002200220080
:105040002200220022002200220022002200220050
:1050500022002200220022000100020002002200A1
:1050600022002200020001002100220002000100B3
:105070002200220022002200220022002200010041
:1050800022002200010002000100220001000100B4
:1050900001000100010022000100010022000100C6
:1050A00001000200220001000100220001000100B5
:1050B0000100010022000200220022000100220063
:1050C0000100020001000100010022002200220074
:1050D0002200010001000100220021000100220045
:1050E0000100010001000100220022000100220055
:1050F0002200220002000200220022000100220001
:105100002200010001000100220001000100220034
:105110002200010001000100220022000100010024
:1051200022000100220022000100010022000100F3
:105130000100220002000100020001000100010044
:1051400021000100010022000100010022002100D5
:1051500001000100220022000100220001000100E4
:105160000100010001000100010001000100010037
:105170000100010022000100010001000100010006
:1051800001000100010021000100010001002100D7
:1051900021000100220001000100010001000100C6
:1051A0002100010022000100010021000100010096
:1051B00022002200220022002200220022002200DF
:1051C00022002200220022002200220022000200EF
:1051D00022002200220022002200220022002200BF
:1051E00022002200220022002200220022002200AF
:1051F00022000200220022002200220022002200BF
:10520000220022002200220022002200220022008E
:10521000220022002200220022002200220022007E
:10522000220022002200220022002200220022006E
:10523000220022002200220022002200220022005E
:10524000220022002200220022002200220022004E
:10525000220022002200220022002200220022003E
:10526000220022002200220022002200220022002E
:10527000220022002200220022002200220022001E
:10528000220022002200220022002200220022000E
:1052900022002200220022002200220022002200FE
:1052A00022002200220022002200220022002200EE
:1052B00022002200220022002200220022002200DE
:1052C00022002200220022002200220022002200CE
:1052D00022002200220022002200220022002200BE
:1052E00022002200220022002200220022002200AE
:1052F000220022002200220022002200220022009E
:1053000022002200220022002200220001002200AE
:10531000220022002200220022002200220022007D
:10532000220022002200220022002200220022006D
:10533000220022002200220022002200220022005D
:10534000220022002200220022002200220022004D
:10535000220022000100220022002200010022007F
:10536000220023000200020022000200220022008C
:10537000220022002200020022002200220002005D
:10538000220022002200220022002200220022000D
:1053900022002200220022002200220022002200FD
:1053A000220022000200220022002200220022000D
:1053B00022002200220022002200220022002200DD
:1053C00002002200220022002200220022002200ED
:1053D00022002200220022000100010022002200FF
:1053E00022002100220022002200220023002200AD
:1053F00002002200220022002200220022002200BD
:1054000022002200220022000200220022002200AC
:1054100001002200220022002200220002002200BD
:1054200022000100220022002200020001002200CE
:1054300022000200220001002200010022002200BE
:1054400022000100220022002200010022000100AF
:105450000100010001000100010001000100220023
:1054600001000100010001000100220022000100F2
:10547000220022002200220022002200010001005E
:1054800022000100010001000100220001002200B1
:10549000010022002200220022002200010022003E
:1054A000220001002200010002002200220022004E
:1054B0000100220022000100220001000100220060
:1054C00001000100010001000100010001000100D4
:1054D00001000100010001000100020001000100C3
:1054E0000100220022000100010001000100010072
:1054F0002200010001000200220001000100010061
:105500000100010001000100010001000100210073
:105510000100010001000100220022000100010041
:105520002200010001000100210001000100010032
:105530002100010001000100010001000100010043
:105540000100010001000100220001000100210012
:105550000100010021000100010001000100210003
:1055600021000100210001000100010001002200D2
:10557000220022002200220022002200220022001B
:10558000020022002200220022002200220022002B
:1055900022002200220022002200220022002200FB
:1055A00022002200220022002200220022002200EB
:1055B00022002200220022002200220022002200DB
:1055C00022002200220022002200220022002200CB
:1055D00022002200220022002200220002002200DB
:1055E00022002200220022002200220022002200AB
:1055F000220022002200220022002200220022009B
:105600002200220022002300220022002200220089
:10561000220022002200220022002200220022007A
:10562000220022002200220022002200220022006A
:10563000220022002200220022002200220022005A
:10564000220022002200220022002200220002006A
:10565000220022002200220022002200220022003A
:10566000220022002200220022002200220022002A
:10567000220022002200220022002200220022001A
:10568000220022000200220002002200220022004A
:1056900022002200220022002200220022002200FA
:1056A000220022002200210002002200220022000B
:1056B00022002200220022002200210001002200FC
:1056C00022002300230022002200020022002200E8
:1056D00022002200220023002200220022002200B9
:1056E00023002200220022002200220022002300A8
:1056F000220022002200220022002200220022009A
:1057000022002200220022002200220022000200A9
:1057100001000100220022002200220023002100BB
:1057200022002200220022000200220002002200A9
:105730000200220022002200220022002200220079
:105740002200220022002200220002002200220069
:105750002200220022002200020022000200220079
:105760002200220022002200220022002200220029
:105770002200220022002200220002002200220039
:10578000220022002200020022002200220001004A
:1057900022002300220022002200220022002200F8
:1057A000220022002200220022000100010022002B
:1057B00022002200220022002200220022002200D9
:1057C00023002200220022002200220022002200C8
:1057D00001002200220022002200220022000100FB
:1057E00002002200220022002200020021002200EA
:1057F00022002200220001000200220001002200FB
:1058000022002200020022002200010001002200EA
:10581000010022000100220001000200010022001C
:10582000010001000100010022000100220022000D
:10583000220022002200220022000100010022009A
:105840002200220022002200220022002200010069
:1058500022002200220001002200010002000100BB
:1058600022000100010022002200010001002200AC
:1058700022000100220001000100010002000100DD
:1058800001000100220001000100010001000100EF
:10589000010022002200010022000100010022007C
:1058A00022000100010001000100010001000100CF
:1058B00001000100220001000100010001000100BF
:1058C0002100010001002100010001000100010090
:1058D000010001000100220022000100220001005D
:1058E000010001002200220001000100010001006E
:1058F000220001000100010022000100220022001C
:10590000210001000100020001000100010022004D
:10591000010001000100010001002100010002005E
:1059200022002100010001000100220022002200CB
:105930002200220022002200220022002200220057
:105940002200220022002200220022002200220047
:105950002200220022002200220022002200220037
:105960002200220022002200220022002200220027
:105970002200220022002200220022002200220017
:105980002200220022002200220022002200220007
:1059900022002200220022002200220022002200F7
:1059A00022002200220022002200220022002200E7
:1059B00022002200220022002200220022002200D7
:1059C00022002200220022002200220022002200C7
:1059D00022002200220022002300220022002200B6
:1059E00022002200220022002200220022002200A7
:1059F0002200220022002200220022002200220097
:105A00002200220022002200220022002200220086
:105A10002200220022002200220022002200220076
:105A20002200220022002200220022002200220066
:105A30002200220022002200220022002200220056
:105A40002200220022002200220022002200220046
:105A50002200220022002200220022002200220036
:105A60002200230022002200220022002200220025
:105A70002200220022002200220022000200220036
:105A80002200220022002300020022002200220025
:105A900022002200220022002200220022002200F6
:105AA00022002200220022002200220022002200E6
:105AB00022002200220022002200220022002200D6
:105AC00022002200230022002200220021002200C6
:105AD00022002200220022002200020002002200F6
